{
  "_format": "hh-sol-artifact-1",
  "contractName": "Decademia",
  "sourceName": "contracts/Decademia.sol",
  "abi": [
    {
      "inputs": [],
      "stateMutability": "nonpayable",
      "type": "constructor"
    },
    {
      "inputs": [],
      "name": "EPNS_COMM_ADDRESS",
      "outputs": [
        {
          "internalType": "address",
          "name": "",
          "type": "address"
        }
      ],
      "stateMutability": "view",
      "type": "function"
    },
    {
      "inputs": [],
      "name": "USDT_CONTRACT_ADDRESS",
      "outputs": [
        {
          "internalType": "address",
          "name": "",
          "type": "address"
        }
      ],
      "stateMutability": "view",
      "type": "function"
    },
    {
      "inputs": [
        {
          "internalType": "string",
          "name": "ipfsCid",
          "type": "string"
        }
      ],
      "name": "addProject",
      "outputs": [],
      "stateMutability": "nonpayable",
      "type": "function"
    },
    {
      "inputs": [],
      "name": "contractPaused",
      "outputs": [
        {
          "internalType": "bool",
          "name": "",
          "type": "bool"
        }
      ],
      "stateMutability": "view",
      "type": "function"
    },
    {
      "inputs": [
        {
          "internalType": "uint256",
          "name": "projectID",
          "type": "uint256"
        },
        {
          "internalType": "uint256",
          "name": "amount",
          "type": "uint256"
        }
      ],
      "name": "investInProject",
      "outputs": [],
      "stateMutability": "nonpayable",
      "type": "function"
    },
    {
      "inputs": [
        {
          "internalType": "address",
          "name": "",
          "type": "address"
        },
        {
          "internalType": "uint256",
          "name": "",
          "type": "uint256"
        }
      ],
      "name": "investorIDtoInvestedProjects",
      "outputs": [
        {
          "internalType": "uint256",
          "name": "",
          "type": "uint256"
        }
      ],
      "stateMutability": "view",
      "type": "function"
    },
    {
      "inputs": [],
      "name": "owner",
      "outputs": [
        {
          "internalType": "address",
          "name": "",
          "type": "address"
        }
      ],
      "stateMutability": "view",
      "type": "function"
    },
    {
      "inputs": [
        {
          "internalType": "uint256",
          "name": "",
          "type": "uint256"
        }
      ],
      "name": "projectIDtoProject",
      "outputs": [
        {
          "internalType": "string",
          "name": "ipfsCid",
          "type": "string"
        },
        {
          "internalType": "uint256",
          "name": "withdrawnAmount",
          "type": "uint256"
        }
      ],
      "stateMutability": "view",
      "type": "function"
    },
    {
      "inputs": [],
      "name": "projectNum",
      "outputs": [
        {
          "internalType": "uint256",
          "name": "",
          "type": "uint256"
        }
      ],
      "stateMutability": "view",
      "type": "function"
    },
    {
      "inputs": [
        {
          "internalType": "address",
          "name": "",
          "type": "address"
        },
        {
          "internalType": "uint256",
          "name": "",
          "type": "uint256"
        }
      ],
      "name": "projectOwnerToProjectIDs",
      "outputs": [
        {
          "internalType": "uint256",
          "name": "",
          "type": "uint256"
        }
      ],
      "stateMutability": "view",
      "type": "function"
    },
    {
      "inputs": [],
      "name": "togglePause",
      "outputs": [],
      "stateMutability": "nonpayable",
      "type": "function"
    },
    {
      "inputs": [
        {
          "internalType": "address",
          "name": "investor",
          "type": "address"
        }
      ],
      "name": "viewInvestorProjectIDs",
      "outputs": [
        {
          "internalType": "uint256[]",
          "name": "",
          "type": "uint256[]"
        }
      ],
      "stateMutability": "view",
      "type": "function"
    },
    {
      "inputs": [
        {
          "internalType": "uint256",
          "name": "projectID",
          "type": "uint256"
        }
      ],
      "name": "viewProject",
      "outputs": [
        {
          "components": [
            {
              "internalType": "string",
              "name": "ipfsCid",
              "type": "string"
            },
            {
              "internalType": "address[]",
              "name": "investors",
              "type": "address[]"
            },
            {
              "internalType": "uint256[]",
              "name": "investedAmounts",
              "type": "uint256[]"
            },
            {
              "internalType": "uint256",
              "name": "withdrawnAmount",
              "type": "uint256"
            }
          ],
          "internalType": "struct Decademia.Project",
          "name": "",
          "type": "tuple"
        }
      ],
      "stateMutability": "view",
      "type": "function"
    },
    {
      "inputs": [
        {
          "internalType": "address",
          "name": "projectOwner",
          "type": "address"
        }
      ],
      "name": "viewProjectOwnerProjectIDs",
      "outputs": [
        {
          "internalType": "uint256[]",
          "name": "",
          "type": "uint256[]"
        }
      ],
      "stateMutability": "view",
      "type": "function"
    },
    {
      "inputs": [],
      "name": "withdrawFunds",
      "outputs": [],
      "stateMutability": "nonpayable",
      "type": "function"
    },
    {
      "stateMutability": "payable",
      "type": "receive"
    }
  ],
  "bytecode": "0x608060405273b3971bcef2d791bc4027bbfedfb47319a4aaaaaa600260016101000a81548173ffffffffffffffffffffffffffffffffffffffff021916908373ffffffffffffffffffffffffffffffffffffffff16021790555073a02f6adc7926efebbd59fd43a84f4e0c0c91e832600360006101000a81548173ffffffffffffffffffffffffffffffffffffffff021916908373ffffffffffffffffffffffffffffffffffffffff1602179055503480156100ba57600080fd5b50336000806101000a81548173ffffffffffffffffffffffffffffffffffffffff021916908373ffffffffffffffffffffffffffffffffffffffff16021790555060006001819055506000600260006101000a81548160ff0219169083151502179055506128f48061012d6000396000f3fe6080604052600436106100ec5760003560e01c8063799881ff1161008a578063bde732c311610059578063bde732c3146102ef578063c4ae31681461032c578063e437549214610343578063ec6ddea914610380576100f3565b8063799881ff146102435780638a67456a1461026e5780638da5cb5b14610299578063a0b5d6c8146102c4576100f3565b80630ed047d4116100c65780630ed047d4146101af57806324600fc3146101d8578063336f56dc146101ef57806348a3b4a414610218576100f3565b80630578991e146100f857806306ca0359146101355780630827155f14610172576100f3565b366100f357005b600080fd5b34801561010457600080fd5b5061011f600480360381019061011a9190611860565b6103be565b60405161012c91906118af565b60405180910390f35b34801561014157600080fd5b5061015c600480360381019061015791906118ca565b6103ef565b60405161016991906119b5565b60405180910390f35b34801561017e57600080fd5b5061019960048036038101906101949190611860565b610486565b6040516101a691906118af565b60405180910390f35b3480156101bb57600080fd5b506101d660048036038101906101d19190611b1d565b6104b7565b005b3480156101e457600080fd5b506101ed61070f565b005b3480156101fb57600080fd5b5061021660048036038101906102119190611b66565b610b5a565b005b34801561022457600080fd5b5061022d610e3e565b60405161023a9190611bb5565b60405180910390f35b34801561024f57600080fd5b50610258610e64565b6040516102659190611bb5565b60405180910390f35b34801561027a57600080fd5b50610283610e8a565b6040516102909190611beb565b60405180910390f35b3480156102a557600080fd5b506102ae610e9d565b6040516102bb9190611bb5565b60405180910390f35b3480156102d057600080fd5b506102d9610ec1565b6040516102e691906118af565b60405180910390f35b3480156102fb57600080fd5b50610316600480360381019061031191906118ca565b610ec7565b60405161032391906119b5565b60405180910390f35b34801561033857600080fd5b50610341610f5e565b005b34801561034f57600080fd5b5061036a60048036038101906103659190611c06565b611018565b6040516103779190611e50565b60405180910390f35b34801561038c57600080fd5b506103a760048036038101906103a29190611c06565b61120b565b6040516103b5929190611ebc565b60405180910390f35b600460205281600052604060002081815481106103da57600080fd5b90600052602060002001600091509150505481565b6060600660008373ffffffffffffffffffffffffffffffffffffffff1673ffffffffffffffffffffffffffffffffffffffff16815260200190815260200160002080548060200260200160405190810160405280929190818152602001828054801561047a57602002820191906000526020600020905b815481526020019060010190808311610466575b50505050509050919050565b600660205281600052604060002081815481106104a257600080fd5b90600052602060002001600091509150505481565b60001515600260009054906101000a900460ff1615151461050d576040517f08c379a000000000000000000000000000000000000000000000000000000000815260040161050490611f38565b60405180910390fd5b61052681604051806020016040528060008152506112b7565b15610566576040517f08c379a000000000000000000000000000000000000000000000000000000000815260040161055d90611fa4565b60405180910390fd5b6040518060800160405280828152602001600067ffffffffffffffff811115610592576105916119f2565b5b6040519080825280602002602001820160405280156105c05781602001602082028036833780820191505090505b508152602001600067ffffffffffffffff8111156105e1576105e06119f2565b5b60405190808252806020026020018201604052801561060f5781602001602082028036833780820191505090505b5081526020016000815250600560006001548152602001908152602001600020600082015181600001908161064491906121d0565b50602082015181600101908051906020019061066192919061169c565b50604082015181600201908051906020019061067e929190611726565b5060608201518160030155905050600460003373ffffffffffffffffffffffffffffffffffffffff1673ffffffffffffffffffffffffffffffffffffffff168152602001908152602001600020600154908060018154018082558091505060019003906000526020600020016000909190919091505560016000815480929190610707906122d1565b919050555050565b6000600460003373ffffffffffffffffffffffffffffffffffffffff1673ffffffffffffffffffffffffffffffffffffffff1681526020019081526020016000208054905011610794576040517f08c379a000000000000000000000000000000000000000000000000000000000815260040161078b90612365565b60405180910390fd5b60001515600260009054906101000a900460ff161515146107ea576040517f08c379a00000000000000000000000000000000000000000000000000000000081526004016107e190611f38565b60405180910390fd5b6000805b600460003373ffffffffffffffffffffffffffffffffffffffff1673ffffffffffffffffffffffffffffffffffffffff16815260200190815260200160002080549050811015610b09576000805b60056000600460003373ffffffffffffffffffffffffffffffffffffffff1673ffffffffffffffffffffffffffffffffffffffff168152602001908152602001600020858154811061089157610890612385565b5b90600052602060002001548152602001908152602001600020600201805490508110156109665760056000600460003373ffffffffffffffffffffffffffffffffffffffff1673ffffffffffffffffffffffffffffffffffffffff168152602001908152602001600020858154811061090d5761090c612385565b5b90600052602060002001548152602001908152602001600020600201818154811061093b5761093a612385565b5b90600052602060002001548261095191906123b4565b9150808061095e906122d1565b91505061083c565b5060056000600460003373ffffffffffffffffffffffffffffffffffffffff1673ffffffffffffffffffffffffffffffffffffffff16815260200190815260200160002084815481106109bc576109bb612385565b5b9060005260206000200154815260200190815260200160002060030154816109e491906123e8565b836109ef91906123b4565b925060056000600460003373ffffffffffffffffffffffffffffffffffffffff1673ffffffffffffffffffffffffffffffffffffffff1681526020019081526020016000208481548110610a4657610a45612385565b5b906000526020600020015481526020019081526020016000206003015481610a6e91906123e8565b60056000600460003373ffffffffffffffffffffffffffffffffffffffff1673ffffffffffffffffffffffffffffffffffffffff1681526020019081526020016000208581548110610ac357610ac2612385565b5b906000526020600020015481526020019081526020016000206003016000828254610aee91906123b4565b92505081905550508080610b01906122d1565b9150506107ee565b50610b573382600360009054906101000a900473ffffffffffffffffffffffffffffffffffffffff1673ffffffffffffffffffffffffffffffffffffffff166113109092919063ffffffff16565b50565b60001515600260009054906101000a900460ff16151514610bb0576040517f08c379a0000000000000000000000000000000000000000000000000000000008152600401610ba790611f38565b60405180910390fd5b6001548210610bf4576040517f08c379a0000000000000000000000000000000000000000000000000000000008152600401610beb90612468565b60405180910390fd5b80600360009054906101000a900473ffffffffffffffffffffffffffffffffffffffff1673ffffffffffffffffffffffffffffffffffffffff166370a08231336040518263ffffffff1660e01b8152600401610c509190611bb5565b602060405180830381865afa158015610c6d573d6000803e3d6000fd5b505050506040513d601f19601f82011682018060405250810190610c91919061249d565b11610cd1576040517f08c379a0000000000000000000000000000000000000000000000000000000008152600401610cc890612516565b60405180910390fd5b60056000838152602001908152602001600020600101339080600181540180825580915050600190039060005260206000200160009091909190916101000a81548173ffffffffffffffffffffffffffffffffffffffff021916908373ffffffffffffffffffffffffffffffffffffffff16021790555060056000838152602001908152602001600020600201819080600181540180825580915050600190039060005260206000200160009091909190915055600660003373ffffffffffffffffffffffffffffffffffffffff1673ffffffffffffffffffffffffffffffffffffffff168152602001908152602001600020829080600181540180825580915050600190039060005260206000200160009091909190915055610e3a333083600360009054906101000a900473ffffffffffffffffffffffffffffffffffffffff1673ffffffffffffffffffffffffffffffffffffffff16611396909392919063ffffffff16565b5050565b600260019054906101000a900473ffffffffffffffffffffffffffffffffffffffff1681565b600360009054906101000a900473ffffffffffffffffffffffffffffffffffffffff1681565b600260009054906101000a900460ff1681565b60008054906101000a900473ffffffffffffffffffffffffffffffffffffffff1681565b60015481565b6060600460008373ffffffffffffffffffffffffffffffffffffffff1673ffffffffffffffffffffffffffffffffffffffff168152602001908152602001600020805480602002602001604051908101604052809291908181526020018280548015610f5257602002820191906000526020600020905b815481526020019060010190808311610f3e575b50505050509050919050565b60008054906101000a900473ffffffffffffffffffffffffffffffffffffffff1673ffffffffffffffffffffffffffffffffffffffff163373ffffffffffffffffffffffffffffffffffffffff1614610fec576040517f08c379a0000000000000000000000000000000000000000000000000000000008152600401610fe390612582565b60405180910390fd5b600260009054906101000a900460ff1615600260006101000a81548160ff021916908315150217905550565b611020611773565b6001548210611064576040517f08c379a000000000000000000000000000000000000000000000000000000000815260040161105b90612468565b60405180910390fd5b6005600083815260200190815260200160002060405180608001604052908160008201805461109290611ff3565b80601f01602080910402602001604051908101604052809291908181526020018280546110be90611ff3565b801561110b5780601f106110e05761010080835404028352916020019161110b565b820191906000526020600020905b8154815290600101906020018083116110ee57829003601f168201915b505050505081526020016001820180548060200260200160405190810160405280929190818152602001828054801561119957602002820191906000526020600020905b8160009054906101000a900473ffffffffffffffffffffffffffffffffffffffff1673ffffffffffffffffffffffffffffffffffffffff168152602001906001019080831161114f575b50505050508152602001600282018054806020026020016040519081016040528092919081815260200182805480156111f157602002820191906000526020600020905b8154815260200190600101908083116111dd575b505050505081526020016003820154815250509050919050565b600560205280600052604060002060009150905080600001805461122e90611ff3565b80601f016020809104026020016040519081016040528092919081815260200182805461125a90611ff3565b80156112a75780601f1061127c576101008083540402835291602001916112a7565b820191906000526020600020905b81548152906001019060200180831161128a57829003601f168201915b5050505050908060030154905082565b6000816040516020016112ca91906125de565b60405160208183030381529060405280519060200120836040516020016112f191906125de565b6040516020818303038152906040528051906020012014905092915050565b6113918363a9059cbb60e01b848460405160240161132f9291906125f5565b604051602081830303815290604052907bffffffffffffffffffffffffffffffffffffffffffffffffffffffff19166020820180517bffffffffffffffffffffffffffffffffffffffffffffffffffffffff838183161783525050505061141f565b505050565b611419846323b872dd60e01b8585856040516024016113b79392919061261e565b604051602081830303815290604052907bffffffffffffffffffffffffffffffffffffffffffffffffffffffff19166020820180517bffffffffffffffffffffffffffffffffffffffffffffffffffffffff838183161783525050505061141f565b50505050565b6000611481826040518060400160405280602081526020017f5361666545524332303a206c6f772d6c6576656c2063616c6c206661696c65648152508573ffffffffffffffffffffffffffffffffffffffff166114e69092919063ffffffff16565b90506000815111156114e157808060200190518101906114a19190612681565b6114e0576040517f08c379a00000000000000000000000000000000000000000000000000000000081526004016114d790612720565b60405180910390fd5b5b505050565b60606114f584846000856114fe565b90509392505050565b606082471015611543576040517f08c379a000000000000000000000000000000000000000000000000000000000815260040161153a906127b2565b60405180910390fd5b61154c85611612565b61158b576040517f08c379a00000000000000000000000000000000000000000000000000000000081526004016115829061281e565b60405180910390fd5b6000808673ffffffffffffffffffffffffffffffffffffffff1685876040516115b49190612885565b60006040518083038185875af1925050503d80600081146115f1576040519150601f19603f3d011682016040523d82523d6000602084013e6115f6565b606091505b5091509150611606828286611635565b92505050949350505050565b6000808273ffffffffffffffffffffffffffffffffffffffff163b119050919050565b6060831561164557829050611695565b6000835111156116585782518084602001fd5b816040517f08c379a000000000000000000000000000000000000000000000000000000000815260040161168c919061289c565b60405180910390fd5b9392505050565b828054828255906000526020600020908101928215611715579160200282015b828111156117145782518260006101000a81548173ffffffffffffffffffffffffffffffffffffffff021916908373ffffffffffffffffffffffffffffffffffffffff160217905550916020019190600101906116bc565b5b509050611722919061179b565b5090565b828054828255906000526020600020908101928215611762579160200282015b82811115611761578251825591602001919060010190611746565b5b50905061176f919061179b565b5090565b6040518060800160405280606081526020016060815260200160608152602001600081525090565b5b808211156117b457600081600090555060010161179c565b5090565b6000604051905090565b600080fd5b600080fd5b600073ffffffffffffffffffffffffffffffffffffffff82169050919050565b60006117f7826117cc565b9050919050565b611807816117ec565b811461181257600080fd5b50565b600081359050611824816117fe565b92915050565b6000819050919050565b61183d8161182a565b811461184857600080fd5b50565b60008135905061185a81611834565b92915050565b60008060408385031215611877576118766117c2565b5b600061188585828601611815565b92505060206118968582860161184b565b9150509250929050565b6118a98161182a565b82525050565b60006020820190506118c460008301846118a0565b92915050565b6000602082840312156118e0576118df6117c2565b5b60006118ee84828501611815565b91505092915050565b600081519050919050565b600082825260208201905092915050565b6000819050602082019050919050565b61192c8161182a565b82525050565b600061193e8383611923565b60208301905092915050565b6000602082019050919050565b6000611962826118f7565b61196c8185611902565b935061197783611913565b8060005b838110156119a857815161198f8882611932565b975061199a8361194a565b92505060018101905061197b565b5085935050505092915050565b600060208201905081810360008301526119cf8184611957565b905092915050565b600080fd5b600080fd5b6000601f19601f8301169050919050565b7f4e487b7100000000000000000000000000000000000000000000000000000000600052604160045260246000fd5b611a2a826119e1565b810181811067ffffffffffffffff82111715611a4957611a486119f2565b5b80604052505050565b6000611a5c6117b8565b9050611a688282611a21565b919050565b600067ffffffffffffffff821115611a8857611a876119f2565b5b611a91826119e1565b9050602081019050919050565b82818337600083830152505050565b6000611ac0611abb84611a6d565b611a52565b905082815260208101848484011115611adc57611adb6119dc565b5b611ae7848285611a9e565b509392505050565b600082601f830112611b0457611b036119d7565b5b8135611b14848260208601611aad565b91505092915050565b600060208284031215611b3357611b326117c2565b5b600082013567ffffffffffffffff811115611b5157611b506117c7565b5b611b5d84828501611aef565b91505092915050565b60008060408385031215611b7d57611b7c6117c2565b5b6000611b8b8582860161184b565b9250506020611b9c8582860161184b565b9150509250929050565b611baf816117ec565b82525050565b6000602082019050611bca6000830184611ba6565b92915050565b60008115159050919050565b611be581611bd0565b82525050565b6000602082019050611c006000830184611bdc565b92915050565b600060208284031215611c1c57611c1b6117c2565b5b6000611c2a8482850161184b565b91505092915050565b600081519050919050565b600082825260208201905092915050565b60005b83811015611c6d578082015181840152602081019050611c52565b60008484015250505050565b6000611c8482611c33565b611c8e8185611c3e565b9350611c9e818560208601611c4f565b611ca7816119e1565b840191505092915050565b600081519050919050565b600082825260208201905092915050565b6000819050602082019050919050565b611ce7816117ec565b82525050565b6000611cf98383611cde565b60208301905092915050565b6000602082019050919050565b6000611d1d82611cb2565b611d278185611cbd565b9350611d3283611cce565b8060005b83811015611d63578151611d4a8882611ced565b9750611d5583611d05565b925050600181019050611d36565b5085935050505092915050565b600082825260208201905092915050565b6000611d8c826118f7565b611d968185611d70565b9350611da183611913565b8060005b83811015611dd2578151611db98882611932565b9750611dc48361194a565b925050600181019050611da5565b5085935050505092915050565b60006080830160008301518482036000860152611dfc8282611c79565b91505060208301518482036020860152611e168282611d12565b91505060408301518482036040860152611e308282611d81565b9150506060830151611e456060860182611923565b508091505092915050565b60006020820190508181036000830152611e6a8184611ddf565b905092915050565b600082825260208201905092915050565b6000611e8e82611c33565b611e988185611e72565b9350611ea8818560208601611c4f565b611eb1816119e1565b840191505092915050565b60006040820190508181036000830152611ed68185611e83565b9050611ee560208301846118a0565b9392505050565b7f436f6e7472616374206973205061757365640000000000000000000000000000600082015250565b6000611f22601283611e72565b9150611f2d82611eec565b602082019050919050565b60006020820190508181036000830152611f5181611f15565b9050919050565b7f49504653204349442063616e6e6f7420626520626c616e6b0000000000000000600082015250565b6000611f8e601883611e72565b9150611f9982611f58565b602082019050919050565b60006020820190508181036000830152611fbd81611f81565b9050919050565b7f4e487b7100000000000000000000000000000000000000000000000000000000600052602260045260246000fd5b6000600282049050600182168061200b57607f821691505b60208210810361201e5761201d611fc4565b5b50919050565b60008190508160005260206000209050919050565b60006020601f8301049050919050565b600082821b905092915050565b6000600883026120867fffffffffffffffffffffffffffffffffffffffffffffffffffffffffffffffff82612049565b6120908683612049565b95508019841693508086168417925050509392505050565b6000819050919050565b60006120cd6120c86120c38461182a565b6120a8565b61182a565b9050919050565b6000819050919050565b6120e7836120b2565b6120fb6120f3826120d4565b848454612056565b825550505050565b600090565b612110612103565b61211b8184846120de565b505050565b5b8181101561213f57612134600082612108565b600181019050612121565b5050565b601f8211156121845761215581612024565b61215e84612039565b8101602085101561216d578190505b61218161217985612039565b830182612120565b50505b505050565b600082821c905092915050565b60006121a760001984600802612189565b1980831691505092915050565b60006121c08383612196565b9150826002028217905092915050565b6121d982611c33565b67ffffffffffffffff8111156121f2576121f16119f2565b5b6121fc8254611ff3565b612207828285612143565b600060209050601f83116001811461223a5760008415612228578287015190505b61223285826121b4565b86555061229a565b601f19841661224886612024565b60005b828110156122705784890151825560018201915060208501945060208101905061224b565b8683101561228d5784890151612289601f891682612196565b8355505b6001600288020188555050505b505050505050565b7f4e487b7100000000000000000000000000000000000000000000000000000000600052601160045260246000fd5b60006122dc8261182a565b91507fffffffffffffffffffffffffffffffffffffffffffffffffffffffffffffffff820361230e5761230d6122a2565b5b600182019050919050565b7f4e6f7420612050726f6a656374204f776e657200000000000000000000000000600082015250565b600061234f601383611e72565b915061235a82612319565b602082019050919050565b6000602082019050818103600083015261237e81612342565b9050919050565b7f4e487b7100000000000000000000000000000000000000000000000000000000600052603260045260246000fd5b60006123bf8261182a565b91506123ca8361182a565b92508282019050808211156123e2576123e16122a2565b5b92915050565b60006123f38261182a565b91506123fe8361182a565b9250828203905081811115612416576124156122a2565b5b92915050565b7f70726f6a656374494420646f65736e2774206578697374000000000000000000600082015250565b6000612452601783611e72565b915061245d8261241c565b602082019050919050565b6000602082019050818103600083015261248181612445565b9050919050565b60008151905061249781611834565b92915050565b6000602082840312156124b3576124b26117c2565b5b60006124c184828501612488565b91505092915050565b7f496e73756666696369656e742042616c616e6365000000000000000000000000600082015250565b6000612500601483611e72565b915061250b826124ca565b602082019050919050565b6000602082019050818103600083015261252f816124f3565b9050919050565b7f4f6e6c79204f776e657200000000000000000000000000000000000000000000600082015250565b600061256c600a83611e72565b915061257782612536565b602082019050919050565b6000602082019050818103600083015261259b8161255f565b9050919050565b600081905092915050565b60006125b882611c33565b6125c281856125a2565b93506125d2818560208601611c4f565b80840191505092915050565b60006125ea82846125ad565b915081905092915050565b600060408201905061260a6000830185611ba6565b61261760208301846118a0565b9392505050565b60006060820190506126336000830186611ba6565b6126406020830185611ba6565b61264d60408301846118a0565b949350505050565b61265e81611bd0565b811461266957600080fd5b50565b60008151905061267b81612655565b92915050565b600060208284031215612697576126966117c2565b5b60006126a58482850161266c565b91505092915050565b7f5361666545524332303a204552433230206f7065726174696f6e20646964206e60008201527f6f74207375636365656400000000000000000000000000000000000000000000602082015250565b600061270a602a83611e72565b9150612715826126ae565b604082019050919050565b60006020820190508181036000830152612739816126fd565b9050919050565b7f416464726573733a20696e73756666696369656e742062616c616e636520666f60008201527f722063616c6c0000000000000000000000000000000000000000000000000000602082015250565b600061279c602683611e72565b91506127a782612740565b604082019050919050565b600060208201905081810360008301526127cb8161278f565b9050919050565b7f416464726573733a2063616c6c20746f206e6f6e2d636f6e7472616374000000600082015250565b6000612808601d83611e72565b9150612813826127d2565b602082019050919050565b60006020820190508181036000830152612837816127fb565b9050919050565b600081519050919050565b600081905092915050565b600061285f8261283e565b6128698185612849565b9350612879818560208601611c4f565b80840191505092915050565b60006128918284612854565b915081905092915050565b600060208201905081810360008301526128b68184611e83565b90509291505056fea264697066735822122016174ba151f36ffcd3b9e89543f69388ab79dfb1b35115c2263555426154d9e664736f6c63430008110033",
  "linkReferences": {},
  "deployedLinkReferences": {}
}